:020000040000FA
:20000000005000207D0F0000750F00005D0F0000790F0000790F0000790F0000000000005C
:20002000000000000000000000000000790F0000790F000000000000790F0000790F0000A0
:20004000E9320000790F0000DD740000790F000051290000152E0000790F0000790F000057
:20006000790F000005750000790F0000790F0000790F0000790F0000790F0000790F00004E
:20008000790F0000790F0000790F0000790F0000790F0000790F0000790F0000790F000020
:2000A000790F0000790F0000790F0000790F0000790F0000790F0000790F0000790F000000
:2000C000790F0000790F0000294B1B689B0702D44FF000407047F0B5002083B0452102F01B
:2000E000A7FA0DF106010120022206F097FD38B901A8022106F0BCFD4FF0004003B0F0BD40
:200100000DF106010020022206F088FD0028EFD0BDF806305BBA9CB2200BADF8043008F0EA
:20012000A1FD08F043F90646C4F30B000F4608F0A9FD0DA3D3E9002304460D4630463946CB
:2001400008F006FE02460B462046294608F000FE09F098F8074909F0F3F909F041FB03B099
:20016000F0BD00BFAFF300807B14AE47E17A843F500600200000C84208B51F4B1B68032BF7
:2001800033D1431E012B30D81C4A1D4B012812881B8812D0184608F065FD0022194B08F07A
:2001A000D7FD0022184B08F0D3FD09F06BF8174909F0C6F909F014FB08BD10B208F062FDC4
:2001C0000022104B08F0C4FD09A3D3E9002308F0BFFD00220E4B08F007FC09F053F80B499C
:2001E00009F0AEF909F0FCFA08BD4FF0004008BD0000000000A0644074060020C216002091
:20020000C41600200000F03E000059400000C84200004440000000002DE9F041664B1B6814
:200220004BB1664B002210F0380604461A609A8006D142073ED14FF000463046BDE8F08193
:2002400002F0FAFA5E4D286007E002F0F5FA2A686FF009039B1AC34203D501F043FD0028D5
:20026000F3D0584B1B78D907E5D5544D0120682102F0DEF929463B20062206F0CFFC0646D8
:200280000020014602F0D4F9002E7ED02F786E78A878E9782A796B79202C6F702E70E87006
:2002A000A9706A712B715AD0102C65D0082C66D00026C2E702F0C0FA414D286007E002F03F
:2002C000BBFA2A686FF009039B1AC34203D501F009FD0028F3D03B4B1B78DB07ABD5374DF9
:2002E0000120682102F0A4F929464320062206F095FC074600284DD095F8008095F801C057
:2003000095F802E0EF782A796B790020014685F8018085F800C085F803E0AF706A712B71E8
:2003200002F086F9042C06D0022C2BD0012C84D1B5F9040001E0B5F9000008F0A3FC1CA304
:20034000D3E9002308F02EFE08F09CFF1E4909F0F7F809F045FA06463046BDE8F081B5F9FA
:20036000000001F0E9FB184909F0EAF809F038FA06463046BDE8F081B5F90200F1E7B5F933
:200380000400EEE7B5F90200D7E72846062106F06FFC50E72846062106F06AFC38463946FB
:2003A00002F046F94FF0004647E700BFAFF300800000000000606040A40600207C0600200C
:2003C000F8160020D01600200000C842000000002DE9F04F144623F00047024657EA040049
:2003E0000E468FB01D469C46214634D06E4B26F0004A9A459346B14626DC24D09F4223DC1C
:20040000694B9F4200F08F80B9F1000FC0F28F804FF0000879BB644B9F4200F0A580634B00
:200420009F4267D0BCF1804F00F0E283604B9C4521D1B9F1000F1EDB104631460FB0BDE872
:20044000F04F08F033B962B10AF1404000F5801050EA0B0007D10346544918460FB0BDE8A1
:20046000F08F5745CCDD53480FB0BDE8F04F08F01BBA4FF0000810463146CDF808C000927A
:2004800008F0DAF9009ADDF808C0BBF1000F20D04FEAD97909F1FF3958EA09037AD0464BC9
:2004A0009F4240F38F8003F104739F4240F31084424B9A4540F39283BCF1000F40F392834E
:2004C00037A1D1E900010B46024608F041FC0346C3E7BAF1000F04D0344B29F0404E9E4531
:2004E000D6D1BCF1000FC0F2B683B9F1000F08DB0346B2E7BCF1000FC0F25284134631461C
:20050000ABE70AF1404A0AF5801A58EA0A0340F05E8402460B4608F067FA0B46024608F047
:2005200041FD034699E700293FF46EAF8CE7244B9F422CDCA3F154739F427FF769AF40F274
:2005400013403B15834240F34B84C3F58663033321FA03F000FA03F38B427FF459AF00F024
:200560000100C0F1020855E70AF1404303F5801353EA0B0300F03983104B9A4540F364832F
:20058000BCF1000FC0F22E832346294665E74FF002083FE7104631463346BCE7AFF300809E
:2005A0009C7500883CE4377E0000F07F0000F03F0000E03FECA200000000E041FFFFEF3F35
:2005C000FFFF3F43BAF5801F4FF0000205DACA4B08F0BEFB8A466FF034024FEA2A53C74E37
:2005E000CAF3130AA3F2FF334AF07F571344B2450C9347F4401740F3D083C14B9A4540F327
:2006000007840026B4460C9BA7F5801701330C933946BC4B4FEACC0C6344D3E900AB524645
:200620005B46CDF834C0CDE9060108F0DDF952465B46CDE90801DDE9060108F0D7F9024600
:200640000B460020B04908F0ADFC02460B46DDE90801CDE90A2308F07BFB02460B46CDE987
:200660000223CDE904237B1043F0005303F5002399190020002306460F460293DDE9022336
:200680001046194632463B46CDE9000108F060FB02460B46DDE9080108F0A6F95246CDE955
:2006A00008015B463046394608F09EF902460B46DDE9060108F098F902460B46DDE90001BD
:2006C00008F046FB02460B46DDE9080108F08CF9DDE90A2308F03CFBDDE90423CDE9060130
:2006E0001046194608F034FB02460B4606460F4608F02EFB6EA3D3E9002382468B463046C4
:20070000394608F025FB6CA3D3E9002308F06EF932463B4608F01CFB69A3D3E9002308F00A
:2007200065F932463B4608F013FB67A3D3E9002308F05CF932463B4608F00AFB64A3D3E96D
:20074000002308F053F932463B4608F001FB62A3D3E9002308F04AF902460B465046594658
:2007600008F0F6FADDE9042306460F46DDE9000108F03CF9DDE9062308F0EAFA32463B464B
:2007800008F034F9DDE9006782468B4632463B463046394608F0DCFA00225C4BCDE908012A
:2007A00008F024F952465B4608F020F902980F460646DDE9000132463B4608F0C9FA3246AC
:2007C0003B46CDE90001DDE9060108F0C1FA0022CDE906014D4B3046394608F005F9DDE939
:2007E000082308F001F902460B465046594608F0FBF8DDE9042308F0ABFA02460B46DDE93A
:20080000060108F0F3F882468B46DDE9000152465B4608F0EBF832A3D3E9002302980F46D7
:20082000064608F095FA30A3D3E90023CDE904013046394608F08CFADDE90023CDE906015F
:200840003046394608F0D0F802460B465046594608F0CAF826A3D3E9002308F079FA024600
:200860000B46DDE9060108F0C1F8DDF834C0284BCDF818C06344D3E9002308F0B7F8CDE9ED
:2008800000010C9808F0FEF906460F46DDE90401204BDDF818C09C44DDE90023DCE900AB07
:2008A00008F0A4F852465B4636E000BFAFF30080EF4E454A287ECA3F65DBC9934A86CD3F81
:2008C00001411DA96074D13F4D268F515555D53FFFAB6FDBB66DDB3F033333333333E33FC6
:2008E000000000E009C7EE3FF5015B14E02F3EBEFD033ADC09C7EE3F000040438E980300EC
:2009000079B60B0060A200000000F03F0000084050A2000040A20000CDE906AB08F066F893
:2009200032463B4608F062F8029832463B4682468B4608F059F8DDE9062308F055F8DDE9FD
:20094000042308F051F802460B46DDE9000108F04BF8CDE9020108F1FF3858EA09030CBF92
:20096000D54BD64B0022CDE904230023CDE900450093DDE90067204632463B46294608F093
:2009800033F852465B4608F0E3F9DDE90223804689462046294608F0DBF902460B464046DF
:2009A000494608F023F804460D465246304639465B46CDE9024508F0CBF906460F4620460A
:2009C0003B462946324608F011F8BD4B824699428946884640F3138101F13F4303F5E00350
:2009E000034340F0E581A0A3D3E90023DDE9020107F0FCFF324604460D463B465046494683
:200A000007F0F2FF02460B462046294608F030FC002840F0CD814C462015A0F2FE304FF4EC
:200A2000801101414144C1F30A50A64CA0F2FF35C1F3130BC0F5826003302C414BF4801BB5
:200A400021EA040300224BFA00FB3946304607F0CBFF06460F46DDE902018BEAE87B0BEB34
:200A6000D87B32463B464FEA0B5A07F0BFFF80A3D3E90023002420460D4608F069F9324626
:200A8000804689463B462046294607F0ADFF02460B46DDE9020107F0A7FF77A3D3E90023D0
:200AA00008F056F976A3D3E9002306460F462046294608F04DF902460B463046394607F0BE
:200AC00095FF06460F4632463B464046494607F08DFF42464B4604460D4607F085FF0246D7
:200AE0000B463046394607F07FFF2246804689462B462046294608F02BF963A3D3E90023F7
:200B000006460F4608F024F961A3D3E9002307F06BFF32463B4608F01BF95FA3D3E90023F5
:200B200007F064FF32463B4608F012F95CA3D3E9002307F059FF32463B4608F009F95AA342
:200B4000D3E9002307F052FF32463B4608F000F902460B462046294607F046FF06460F4639
:200B600032463B462046294608F0F2F80022CDE900014FF080433046394607F035FF024682
:200B80000B46DDE9000108F00DFA424606460F464B462046294608F0DBF842464B4607F0D4
:200BA00025FF02460B463046394607F01DFF22462B4607F019FF02460B4600203F4907F050
:200BC00013FF8A44BAF5801F0246C0F227815346DDE9040108F0BCF803463EE4BCF1000F0E
:200BE000FFF66EAC0023194637E40B46334934E433461046314608F0ABF803462DE4324BAC
:200C000021F000449C4240F3FA80304B0B4403430CD132463B4607F0E7FE02460B46DDE9D3
:200C2000020108F011FB00283FF4F6AE20A3D3E90023DDE9040108F08BF81DA3D3E9002327
:200C400008F086F8034608E4BCF1000FCADA234605F1004101E402460B460020174908F0F3
:200C6000A1F942E4AFF30080FE822B654715973C00000000432EE63FEF39FAFE422EE63F08
:200C8000396CA80C615C20BED0A4BE726937663EF16BD2C541BDBB3E2CDE25AF6A56113FA0
:200CA00093BDBE166CC1663F3E5555555555C53F59F3F8C21F6EA5010000F0BF0000F03F3C
:200CC000FFFF8F40FFFF0F00FFCB904000346F3F634B9A4582DD634B9A453FF7EDAB002255
:200CE000604B07F081FE54A3D3E9002306460F4608F02EF852A3D3E90023CDE9000130463D
:200D0000394608F025F83246CDE902013B463046394608F01DF8002282468B4630463946DB
:200D2000514B08F015F802460B4647A1D1E9000107F05AFE32463B4608F00AF802460B46FB
:200D400000204A4907F050FE02460B465046594607F0FEFF3EA3D3E9002307F0F9FF0246E2
:200D60000B46DDE9020107F03FFE06460F46DDE9000132463B4607F039FEDDE9002300208D
:200D800082468B4607F030FE02460B463046394607F02AFECDE90201DDE50026B44637E432
:200DA000334600202F4908F0FDF80346FFF755BB29A3D3E90023DDE9040107F0C9FF26A3E8
:200DC000D3E9002307F0C4FF0346FFF746BBB8F1010F03467FF441AB01F10041FFF73DBBB8
:200DE00000297FF446ABC3F58263033347FA03F000FA03F3BB4217D08846FFF710BB1B4B96
:200E00009C423FF709AEDDE90023924693462EE64FF480264FF0010CFFF7FABB5A4600F0E9
:200E200027F802460B46D3E600F00100C0F10208FFF7F5BAAFF30080000000604715F73FDC
:200E400044DF5DF80BAE543E555555555555D53FFE822B654715F73F9C7500883CE4377EAD
:200E6000FEFFEF3F0000F03F0000D03F0000E03FF8B5C1F30A5604460D460B46174616BB0D
:200E800021F00043034332D00022314B07F060FF304A044697420D460B4637DB40F2FE72CD
:200EA000C1F30A56363E3E44964215DD24A1D1E9000122462B4607F08BFD21A3D3E90023E3
:200EC00007F046FFF8BD40F2FF72964224D040F2FE723E449642E9DC002E09DD23F0FF4388
:200EE00023F4E00343EA065520462946F8BDF8BD16F1350F15DA4CF250339F42D6DC12A1F0
:200F0000D1E9000122462B4607F062FD0EA3D3E9002307F01DFFF8BD02460B4607F066FD9C
:200F2000F8BD23F0FF4323F4E003363643EA0655204629460022084B07F00AFFF8BD00BFFB
:200F40009C7500883CE4377E59F3F8C21F6EA50100005043B03CFFFF0000903C044B1A68D0
:200F6000B2F5806F03D01B689B0500D4FEE7704728ED00E0FEE700BFFEE700BF08B504F087
:200F8000B7FC104A104B9A420DD2D0430F4918440B4620F003000430084453F8041B834254
:200FA00042F8041BF9D10A480A494FF000028842B8BF40F8042BFADB00F0CAF8FFF7CEFF36
:200FC00008BD00BF000000207C050020BCA60000800500203E17002030B5038887B004465F
:200FE0009BB13A2B0CD1254B1B788B422CD0244B1B788B420DD03A230120238007B030BD26
:2010000000230380032007B030BD1E4801F0C4FEF1E71D4B9A42EED15368002098471B4951
:20102000C21781FB00316423C2EB611203FB1203174903A802F0E6FE03A9164802F0C4FED1
:20104000154803F061FCD6E711461448019202F0BBFE019A1249104608F0E6FF0546002899
:20106000C9D1104801F006FD0F4A2B4611680A48C9010E4A03F03CFCBDE700BF3D170020D1
:201080003C170020CD4F0000F0A300001F85EB51E0A20000E8A200009005002088A2000063
:2010A0009CA20000A0A200008C050020B11000000A4A0B49136809688B4204DB002309488A
:2010C000136003F03DBC0849013313608B6882B081200121019302B0184700BF88050020C0
:2010E0003804002090050020F0A30000F0B5002706463C463D4683B0304600F0B9F901954E
:20110000019B9C4206DD00BF019B01330193019B9C42F8DC304600F0B5F90195019BC4F502
:20112000C874A34206DA00BF019B01330193019BA342F8DB0137B7F5487F06D0B7F5C87FC3
:20114000CCBFC7F548743C46D6E703B0F0BD00BFF0B55A4C85B02368594801215B689847BE
:20116000236801210A461B685548984704F084F802F0FEF802F068F800F0AAFF02F0A2F8A4
:2011800000F06CF94F495048504A012303600B6018461368FFF7AAFF04F072F801F04EFB2E
:2011A00001F0C4FA03F074FE01F028FC03F080FD41F2342003F0B4FF01F0C6FD03F030FF93
:2011C000434801F057FC4AF630520021414802F0FBFD414801F04EFC0021404803F02CFE60
:2011E00003F04CFB03F0C6FB0220FFF77FFF3C4802F0EAFD3B4B3C4C186801F03BFC3B48D5
:2012000002F0E2FD3A4B186801F034FC394802F0DBFD2168384802F0D7FDE469A04720B1B8
:20122000A0470146354802F0CFFD0A2001F01AFC002704F049FD02A80821314C019701F0DA
:2012400051FC9DF80F302F4ABDF80E109DF80E60118043EA0626E56A4AF6CD310220A84796
:2012600031460320A8470B210120A847082202A9636B0B209847A36A01A9012098470199AB
:20128000214802F0A1FD0220FFF730FF39461F4803F0D2FD1E4803F09BFA01F0BDFB0120AE
:2012A000FFF724FF03F01EFD044601F0CDFB14F0FF0FF7D101F0B4FEF4E700BFD801001004
:2012C00000400340080009400C4009402C2009400CA3000030A3000048A30000F40400208B
:2012E0005CA30000B4A50000F4A5000064A30000CCA500006CA3000074A3000078A3000044
:20130000D8A40000FC1600209CA300003C04002080A200002DE9F04104880646772C30D09C
:201320007E2C27D024B1002303800320BDE8F08103F0B6FC2F4F304B304D3A6818702C6087
:20134000002A45D02346A0462D4C04F8038093688020002198472B68013357F823202B6088
:20136000002AF2D1DBB2274A1370772333800120BDE8F081204B1B788B4219D00120BDE801
:20138000F081DFF880801D4D98F800201E4F002393423B602B6007DA194CE156002919DBC6
:2013A000013393422B60F7DB3B68002BEFD1DCE7124D134CDFF84C80134F2B683A68E05C42
:2013C000511C00F07F0098F80020E0543960E7E71346C8E70849074A097852F8232000200E
:2013E00003F0F6FC0028E8D17E2333800120BDE8F08100BF4C0400203C170020B005002025
:20140000EC160020CC160020B405002010B40F4B1C7864B10E4A1368984214D0002303E071
:2014200052F8041F88420CD00133A342F8D1094A0948135D63F07F0313555DF8044B03F0CF
:201440001BBD1C46F3E70024F1E700BFCC1600204C040020EC1600203C04002008B500F01C
:201460001BF8024B00221A7008BD00BFCD160020034A137803431846137000F029B800BF4A
:20148000CD160020034A137823EA00031846137000F01EB8CD1600200A4B1A6802B1704776
:2014A00010B50122084C1A6023680A20DB6B984723680F20DB6B9847044B4FF404421A606B
:2014C00010BD00BFB8050020B4010010A0200240094B0A494FF4044208701A60C20744BFEE
:2014E0004FF4806243F8102C830703D5044B4FF400421A60704700BFA0200240CE16002024
:2015000090200240813801289ABF024B18680020704700BFFC050020024B032202481A60E4
:20152000FFF774BFFC050020C0A3000010B5044682B07721002001F07BF84CB98DF80740D0
:201540000DF107010122F42005F076FB02B010BD25238DF80730F3E730B5802885B016D0E3
:20156000812810D11D4C206878B151B30120FFF7DDFF1B4803211B4A002303F0B9F90220FA
:20158000206005B030BD154B186805B030BD134C012500207721256001F04AF8124918221D
:2015A000882005F03BFB04A9B62301F8013D2A46E02005F041FB0020FFF7B8FF206805B0F0
:2015C00030BD0748019103F0BBF901990846FFF7ADFF01231846236005B030BDFC05002044
:2015E000DC05002019150000C4050020F8B5534B1B68032B40F09A80431E012B00F29680F8
:201600004F4C00237721054623601846A38001F00FF82146F720062205F000FB00287ED021
:20162000E178484A23796079090341EA0311168841EA1013C6EB131101FB01F1B2F9047031
:2016400076000913B2F90200C6EBD30307FB01F100FB03F0891301EBE0204710A7F57A4E9F
:201660004FEAAE0606FB06F6B2F90810B2F90A70731301FB0EF103FB07F3B2F90E7049109D
:2016800007FB0EF701EBE303B2F806C09B14B2F910E003F50043F61279000CFB03F30EFBF5
:2016A000061726786178B2F90CE094F802C036034FEA0E4446EA0111DB13906104EBA7072F
:2016C00041EA1C1127D040F635444942A1EB273104FB01F101F1434101F5A0010029B3BF04
:2016E000B1FBF3F34900B1FBF3F35B00D90801FB01F1B2F91440B2F916609F08490B04FB39
:2017000007F401FB06F1B2F91260621302EB2131314403EB2113012D0BD01846F8BD2046F1
:20172000062105F0A5FA4FF00040F8BD4FF00040F8BD00EB800080300012F8BDFC05002083
:20174000BC050020C4050020813801289ABF024B18680020704700BF24060020024B032265
:2017600002481A60FFF752BE24060020D0A3000010B504464421002000F05AFF002C064B88
:2017800014BF1024002402201C801946BDE81040024605F051BA00BFC016002010B58028A2
:2017A00082B017D0812811D11D4C206880B1002929D00120FFF7DCFF1A4824211A4A002321
:2017C00003F096F80220206002B010BD144B186802B010BD154C012023689B6B984723688C
:2017E00001209B694FF48041984723684FF08041DB69012098470020FFF7BAFF084B0120CF
:20180000186002B010BD0748019103F099F801990846FFF7ADFF01231846236002B010BD5E
:2018200024060020040600205D170000B401001038B5344B1B68032B07D1820705D003287D
:201840000FD0012805D0022807D04FF00043184638BD2D4B1B68184638BD2C4B1B6818462F
:2018600038BD2B4D44210446002000F0E1FE29460420022205F0D2F970BB264D25480421B6
:2018800005F0F6F900202C786B78A978EA7843EA042442EA01220028D7D0900807F0FCFD3F
:2018A0004FF0745107F04CFE1B4907F049FE07F097FF154B154D1860A00807F0EDFD4FF0B2
:2018C000745107F03DFE144907F03AFE07F088FF01232860184638BD2B885BBA2B805B0436
:2018E0000C4DCBD501202946022205F097F90028C4D02046A91C022205F090F90028C2D172
:20190000BCE700BF24060020000600202C060020C01600202806002000007A44014B1868D5
:20192000704700BF5006002070B506460E4C82B000204521256800F07BFE76B905F0020517
:201940004FF486532560ADF806300DF106010222012005F071F902B070BD41F2C202012368
:20196000ADF806202360F0E75006002000B5002083B0452100F05CFE01200DF106010222CA
:2019800005F04CF9BDF90630002B08DB08481021084A002302F0ACFF03B05DF804FB06482B
:2019A000FFF734FD054B02221A6003B05DF804FB300600206D190000F0A300005006002026
:2019C000802810B50DD0812809D10C4671B90D4802F0B6FF2046FFF7A7FF204610BD00206D
:2019E00010BD0020FFF7A0FF002010BD0120FFF79BFF04481021044A002302F079FF01204E
:201A000010BD00BF300600206D190000813801289ABF024B18680020704700BF7406002026
:201A200038B5114C114A237803211160ABB1104D0020432100F0FCFD0421284600F002FD29
:201A400020700020014600F0F3FD2A886B880948094952BA5BBA02800B8001232370074833
:201A6000BDE83840FFF7D2BCCF1600207406002078060020C2160020C416002000A40000F2
:201A800030B5802883B023D081281DD1234C2068E0B100293AD0224D2B785BB1432100209F
:201AA00000F0C6FD002000F0ABFC28700020014600F0BEFD1B4803211B4A002302F018FFFA
:201AC0000220206003B030BD144B186803B030BD164B0024164A174D20461C604321148022
:201AE0002C8000F0A5FD02A91023022021F8023D024605F0A1F80A4B21461870204600F0E0
:201B000097FD064B0120186003B030BD054802F017FF01231846236003B030BD7406002013
:201B2000CF16002054060020211A000078060020C4160020C216002008B5174B1B78032B7B
:201B400028D8DFE803F01E150C0207F09BF800224FF07D5307F0FCF807F094FB08BD07F0A2
:201B600091F800220D4B07F0F3F807F08BFB08BD07F088F800220A4B07F0EAF807F082FB03
:201B800008BD07F07FF80022064B07F0E1F807F079FB08BD002008BDD31600200000303F42
:201BA0000000203F0000103F813801289ABF024B18680020704700BFA4060020024B02229E
:201BC00002481A60FFF722BCA406002018A4000010B50C4C0120682100F02AFD3F23214640
:201BE00001226C20237005F027F821464F236B200122237005F020F8BDE81040002001460C
:201C000000F016BDD4160020802838B50BD0812806D111F03F012DD1294B1B68DB043BD4E3
:201C2000284B186838BD284C072023689B6B9847236807209B694FF40051984723684FF0BE
:201C400080410720DB69984723680C20DB6B984723680C209B6A4FF480614FF440729847E9
:201C60001A4A4FF480501A4B1060164900221A60086838BD1648174B124D4FF48052016023
:201C800001241A6014480821144A00232C6002F02FFE2C60204638BD0D4B0F48196002F0F3
:201CA0004FFEFFF795FF0E4A136813F00103FBD1044A06494FF4805013600860106838BDAF
:201CC00080200240A4060020B4010010A0200240A806002090200240840600200D1D0000FD
:201CE0000428004010B5084C0120682100F0A0FC214601223A2004F091FF0020014600F06A
:201D000097FC207810BD00BFD01600202DE9F041354C236813F0380F15D1344D03F03F04CC
:201D20002E7856B94CBBFFF753FFBDE8F04130480521304A002302F0DBBDE3B22B70002CA8
:201D4000F1D02D4F3DE02D4E3278002AE5D02C4F0025012068213D7000F06AFC3946012236
:201D60001C2004F069FF07462946284600F060FC2368002FD1D03570CFE71F4F0120682187
:201D800000F056FC0923394601226B203B7004F053FF3F23394601226C203B7004F04CFF3D
:201DA000174901221C202E7004F046FF394601223A2004F033FF3046314600F039FCE3B2C4
:201DC0002B70DB43012068213B7000F031FC012209496C2004F030FF0020014600F028FC39
:201DE000084803F051FAA0E7A8060020D216002084060020BD1B0000D4160020D316002063
:201E0000D11600208038010008B5034B1B685B689847C0F3804008BDB401001028B10128D3
:201E200006BF054BD86800207047044B186800F0010080F001007047AC060020C02002409A
:201E400008B100207047034B186880F01000C0F300107047C0200240813801284FF00000E7
:201E600000D97047FFF7D0BF8138012801D9002070470420FFF7C8BF802870B514460AD018
:201E8000812807D1E9B9BDE87040194B10461B685B6B184770BD164B164A0125A5401B68EC
:201EA000156020461B680021134A9847134AE0B21368134923EA05051560BDE8704001F0CF
:201EC000EBB90B4E0B4A01253368A540156020461B680021084A9847084A3168136820468E
:201EE00023EA050515600B6BBDE87040184700BFB4010010E020024000400720D0200240CD
:201F00001D1F000008B50022FFF7B6FF012008BD08B50422FFF7B0FF012008BD38B510B1F9
:201F2000042814D038BD134C204602F0EBFF0028F8D02046042102F0D7FF0F4B1B6813F0D8
:201F400001050CD100F03AFCE560A06038BD4FF480414FF08052BDE8384000F085BF00F0E8
:201F60002DFCA368C31AE3600448BDE83840FFF74DBA00BFAC060020C020024038A4000018
:201F8000024B186800F00800704700BFC02002408138012801D90020704708B5034B032023
:201FA0001B685B689847C0F3804008BDB4010010802810B509D0812805D1134B03201B6836
:201FC000E9B95B6B9847012010BD0F4C032023685B6B98470D4B0E4A1B6808211160DB690D
:201FE0004FF4A060984723680A4A1B680320002198470320084901F04FF9012010BD1B6B19
:202000009847012010BD00BFB4010010B8010010E0200240002003201D20000008B50748D8
:2020200002F070FF00B908BD0548FFF7EFF9BDE808400248402102F057BF00BFBC06002055
:2020400060A4000010B5064C042023685B699847236804205B6B98470128F9D110BD00BF40
:20206000B8010010FFF7EEBF032801D000F016B908B504F0D5FE104B00219B6881209847B6
:202080000E4B00219B68812098470D4B00219B68812098470B4B00219B68812098470A4BF8
:2020A00081209B6800219847084B4FF480521A60BDE8084000F0F2B8C0A30000F0A300001D
:2020C000D0A3000000A4000018A40000A020024070B503F0D1F80646FFF7B4FF3C4B4FF48B
:2020E000A0601B68DB6998473A4B01213A4A196013689B07FCD5394C00F0A2F804F08AFE1D
:2021000004F07EFE364801F093F8236819209B6B984723684FF4005119209B6998472368E6
:2021200018209B6B984723684FF4005118209B699847236817209B6B984723684FF4005182
:2021400017209B69984723681B209B6B984723684FF400511B209B69984723681E209B6BAE
:20216000984723684FF480411E209B69984723680D20DB6B98471B4A4FF4005523681560F6
:2021800000214FF480729B6A0D209847236802209B6B9847236829469B69022098472368BC
:2021A0000B209B6B9847236829469B690B20984723681D209B6B9847236829469B691D201F
:2021C000984706B170BDBDE8704003F059B800BFB80100102820086028200840B401001056
:2021E00070040020A020024010B5094B09481B685B68984710F00C0F044605D0064B042209
:202200001A60022003F040F8B4FA84F0400910BDAC010010002000400428004008B5064B28
:2022200002201B685B6B9847012803BF034B186800F00100002008BDB80100106020084034
:2022400070B5104D02202B685B6998472B6802205B6B9847012804460A4BF7D11B684FF4F4
:202260004070DB699847084B084A1C6013689B07FCD5074B07481B6807491B680122BDE8BD
:2022800070401847B80100102820086028200840AC01001000200040006CDC02214B10B58E
:2022A000FF221A70FFF7BAFF20B11F491F4A00230B6013601E4B4FF440701B681B6A9847DE
:2022C0001C4B01211C4A196013689B07FCD51B4C082023689B6B984723684FF40051082062
:2022E0009B699847236809209B6B984723684FF4005109209B699847236805209B6B9847A2
:2023000023684FF4804105209B699847236806209B6B9847236806209B694FF48041BDE832
:20232000104018477A0500200428004010040542B80100102820086028200840B4010010BA
:202340002DE9F84305462A4B2A4A1B780E465B0013602949037804320B601368274C5F0662
:20236000FBD403232360022002F08EFF2368D807FCD4FFF739FF012E034624D900B301357E
:2023800006F1FF390224DFF870801C4F02E0B4421BD2013415F8012B631E9945C8F8002044
:2023A000F5D901233B60022002F06EFF3B68D907FCD4FFF719FFB442034604D20028E8D1B8
:2023C0000020BDE8F883002BFAD00C4C05232360022002F059FF23461A68D207FCD4FFF7CF
:2023E00003FF064A13685B06FCD4BDE8F88300BFD5160020002800400828004004280040B1
:2024000010B50C4B0C4C1B780C495B000C4A2360086013680A4C5906FBD4072323600220F6
:2024200002F032FF2368DB07FCD4BDE81040FFF7DBBE00BFD5160020002800400828004016
:20244000042800402DE9F84F8146274B274A1B7888465B0043F00103254913600B68244A54
:2024600013F04004FAD116460B231360022002F00BFFB346DFF87CA008F1FF370125A74205
:2024800016DDFDB13368D807FCD4FFF7ADFE05460028F4D0DAF80020092309F80420013401
:2024A0000220CBF80030E4B202F0EEFEA742E8DC45B10F4A13680E4DD907FBD4FFF794FE8A
:2024C000044618B900242046BDE8F88F094BC8441A68052308F8012C02202B6002F0D4FE83
:2024E0002B685B06FCD4EEE7D51600200028004004280040082800402DE9F04F0546484FBD
:2025000083B098463B780192464A5B0013608A460378454904320B601368444C5906FBD453
:2025200003232360022002F0AFFE2368DA07FCD4FFF75AFEBAF1010F034625D900B30135BC
:202540000AF1FF390224DFF8E0B0384E02E054451CD2013415F8012B631E4B45CBF800206A
:20256000F5D201233360022002F08EFE3368DB07FCD4FFF739FE5445034605D20028E8D129
:20258000002003B0BDE8F08F002BF9D0274A3B78154624485B0043F001030B210360022022
:2025A000116002F071FEAA461F4F08F1FF3601244FF0000BB34516D2002CE1D02B68D8071F
:2025C000FCD4FFF711FE04460028F3D03A680199092301F80B200220CAF8003002F054FE0D
:2025E0000BF1010BE6E7002CCAD0104A13680F4CD907FBD4FFF7F8FD0028C1D0019A0A4BCD
:20260000424490461A68052308F8012C0220236002F03AFE23685B06FCD40120B1E700BF84
:20262000D51600200028004008280040042800402E4B10B504461970FFF7F0FDB0B12C4B7F
:202640001A78A24218D02B482B4900221C7002600A601B788BB1012B2BD0BDE81040274B5E
:2026600027481B6827491B6801221847FFF7E8FD1F4B1A78A242E6D110BD234C0520236895
:202680004FF4C0419B699847236806209B694FF4C04198472368052106221948DB6C9847DB
:2026A000236808209B6B9847236809209B6B9847D3E7154C082023684FF4C0419B699847F4
:2026C000236809209B694FF4C04198472368082109220B48DB6C9847236805209B6B984732
:2026E000236806209B6B9847B7E700BFD51600207A0500200428004010040542AC010010B9
:2027000000200040006CDC02B401001010B5064C042023685B699847236804205B6B98478D
:202720000128F9D110BD00BFB801001038B5194A00200021C2E90001174B04201B685B6B45
:202740009847012801D0FFF7E1FF134B00201B68DB699847114B0121114A196013689B0737
:20276000FCD5104A10491368096823F4807323F001030E4C13600B6820460D49984740F2BB
:2027800021220C490C4B04253120256008601A6038BD00BF80050020B80100102820086097
:2027A000282008400C000140C801001000000140002100043C0001400800014010B4094921
:2027C000094C0B68226808688342FAD1DB01074903EB52620023C1E900235DF8044BD1E98B
:2027E00000017047082009400C2009408005002010B50B490B4C0B68226808688342FAD129
:20280000DB01094903EB52620023C1E9002302F07DF900B910BDBDE8104002F05DB900BF4E
:20282000082009400C20094080050020704700BF0146012000F060B802F00CBD2DE9F04125
:2028400002F01AFD194F1A4A1A4E1B4901243B68002535600C60146080461B68284623217A
:2028600098473B6820461B6824219847134A1449136823F4E02343F4403313600D6002F0FE
:20288000E9FC104B1049114A1B6800F500700860146034601B6914209847B8F1000F01D0CC
:2028A000BDE8F081BDE8F04102F0EABC84010010A000244300002443800024430020094041
:2028C00008200940B00100101C200940A0022443064A074B10681B68DB0706D5054B1B680B
:2028E0001A1A30EA220028BF184670471C2009401420094018200940431E012B00D97047CC
:20290000C30709D50B4B820719600ED50A480B4B012201601A6003E0830705D5064B19601D
:20292000074B01221A6070477047044B01221A60704700BF182009401C20094080022443E9
:20294000A0022443014B1868704700BFC406002008B5FFF771FF124B1860FFF749FF114BB0
:202960001B686BB9104B1B6803B908BD0F4B10490020012208601A60BDE8084002F0A0BA40
:202980000A4B4FF480721A6002F064FC00F2052020F4FF70074B20F001001860E2E700BFE4
:2029A000C4060020A00024438000244304200940800224431C200940820702D5034B012293
:2029C0001A60C30700D4704702F05ABC000C084008B502F051FC074B1A68012A03BF0649C0
:2029E000022219600022002814BF104642F0010008BD00BF000C084051E5CC1A0349044808
:202A0000044B012208601A60704700BF00000840FFFF0F00000C084038B5FFF7D9FF064C36
:202A2000064D0749074A012325600B601360BDE83840FFF7C1BF00BF00000840FFFF0F0074
:202A40000C0008400401004303490448044B012208601A60704700BF00000840FFFF0F0023
:202A60000C00084010B50446C0B200F081F9204610BD00BF70B506460024451E04E015F83C
:202A8000010F00F075F90134304607F0ABFB8442F5D30A2000F06CF900F0B0F90128FBD0E6
:202AA000204670BD70B50446B0B10078C0B1A9B10025661804E014F8010F38B1B44205D019
:202AC00000F056F9631C05F10105F4D100F096F90128FBD0284670BD0546F7E70D46F5E711
:202AE0000546F3E710B40B4B0B4C13F8012FFF2A0ED1A342F9D1094A39B111440138013949
:202B00000B78914200F8013FF9D15DF8044B7047034AF1E7C7FF0100CFFF0100F0120050F5
:202B2000C8FF010038B50C4D02202B685B6998472B6802205B6B984701280446064BF7D149
:202B40001B684FF40070DB699847044B044A1C6013689B07FCD538BDB801001028200860A7
:202B6000282008402DE9F04340F2F275DFF8E08083B0FFF7D7FFD8F800302B4EDB682B487E
:202B8000984733682A4C5B69152098472368DFF8C490284F23F4FE63D9F8002023F00203BF
:202BA00023603D60D36B1D2098472349D9F800204FF0FF334FF0005008600093D2F840C079
:202BC0001A481C211D22E047D8F800301748D3F804C01A494FF4E1326023E04740F201125A
:202BE00040F2013E1649174B142008601968164841F01001196003681449002B0CBF134656
:202C000073460B603D60036853B12368326843F0500323601369152003B0BDE8F0431847BB
:202C200003B0BDE8F08300BFB001001000100040381000404410004090200240006CDC02A1
:202C4000341000402C100040C806002030100040D0010010B401001008B5064B02201B68AD
:202C60005B6B9847012803BF034B186800F00100002008BDB80100106C20084038B504464C
:202C8000FFF7EAFF18B1264A13681907FCD4032C03D0244B1B6803B138BDFFF7DDFFF0B999
:202CA000214D4FF400702B681B6A9847032C2CD01E4B01211E4A196013689B07FCD51D203A
:202CC00000F0D2FA1C2000F0CFFA4FF0FF3000F0CBFABDE838404FF0FF3000F0C5BA154BC6
:202CE00015481B68DB689847144B15201B685B69984740F2F270124A1249136823F4FE63DA
:202D000023F0020313600860CAE72B684FF400709B6A98472B684FF400701B6B9847C7E78C
:202D200018100040C8060020B80100102820086028200840D001001000100040B001001042
:202D4000381000404410004010B502F095FA0446054800F06DFA054B00221A6004B110BDB5
:202D6000BDE8104002F08CBA84040020C806002010B50446FFF770FF08B9FFF7F3FE044B25
:202D80002146BDE810401B680248DB69184700BFD00100100010004010B5134B134C18607D
:202DA000134A2368A8B1022111615B6A4FF40070984723684FF40070DB6A98470D4B01210A
:202DC0000D4A196013689B07FCD5BDE81040FFF7C9BE10619B6A4FF40070984723684FF4ED
:202DE00000701B6B9847E9E7C8060020B801001084040020282008602820084008B5FFF7DC
:202E00002BFF18B1024B1868C0F3C00008BD00BF1810004038B5FFF785FE40F2F2710C4B41
:202E20000C4A1B68116013F0500F10D00A4C0B4D05E02B681B699847094B1B6823B923683F
:202E40000848DB06F5D538BDC0B29847F7E738BD401000404410004018100040D0010010F1
:202E6000C8060020001000402DE9F0410F461646054602F001FA00221446DFF894C1DFF865
:202E800094E14C484C490123DFF88C81CCF80020CEF8003003600B60D8F8003020461B68FB
:202EA00001343F219847042CF6D1DFF86C810024D8F8003020469B6801343F219847032CB3
:202EC000F6D13E4B1B68FFF7BFFD3D4802F0BEF8044630B1A368032003B198472468002C9C
:202EE000F8D16B1C0FD0374937480A680123AB4022EA0303046846F000520B603A432846C7
:202F0000236800219847314D314A00242B6814609B690720984700F08DFA00F04DFA2D48D5
:202F20002D4903682D4A23F0030303600B682C4823F4C0530B601368296823F00F0313609D
:202F400004608B6938209847264B274D1B682C60DB6801209847254B254A2C601C60136849
:202F600013F02004FBD1DFF8B4E0224F22481849224B234A0126114DCEF800603C60046032
:202F80000C601C602B681F491368096823F0030313604B681C48032198470C4B1B4A1248A6
:202FA00012491B6804600C6016602A689B6BBDE8F0411847A0002443C00024432C2009405D
:202FC000CC060020D0200240B4010010B80100100C40094000100940041009400810094093
:202FE00080012243A00100104010094020042243141009404001224344012243080009400A
:2030000024220840D801001000400340181009400000244380002443840100108801044392
:2030200070B502F029F901F0C9FE002840F0A080FFF74EFC0446FFF7FFFB201A202800F13A
:203040009B80654802F002F80446002800F0AB800225636823B19847A84228BF2846C5B2D4
:203060002468002CF5D101F059FD044601F04EFD002840F0A180012D7ED0574801F0E6FF9B
:203080000446002800F081800626A3680BB1284698472369246826EA0306002CF5D1FFF774
:2030A000D3FC730706F0060572D4002D75D100F0C1F94A484A4903684A4A23F003030360C3
:2030C0000B68494C23F4C0530B6013684748216843F00F030024136004608B693920984754
:2030E000434B444E1B683460DB6801209847424A424B34601460186810F02000FBD102F0D7
:2031000075FC062D63D03E4C3E4D3F4E2B682368326823F00303236053683C4803219847A0
:20312000314B1B689B6B98472B6802F053FD384A33680021116035485B680121984723685B
:20314000344A012143F00303236011602B6802F073FDFFF74DFBFFF777FC1F4801F076FF39
:20316000044628B1E36803B198472468002CF9D1BDE8704002F084B802F082F8264A1368F2
:2031800023F00403136030BF70BDFFF75DFC0625204B00221A60002D89D0134B28461B6830
:2031A0009B69984783E701F0B9FC044601F0AEFC022500283FF461AFFFF700FB241AFFF780
:2031C000C1FB00EB44210220FFF796FB53E7022002F0FCF897E700BFCC0600200010094070
:2031E0000410094008100940B801001080012243A001001040100940200422431410094022
:20320000242208402C200940D801001000400340800104430C40094010ED00E0034A13681D
:2032200023F00403136030BF704700BF10ED00E00146014801F00CBFCC06002001460148F1
:2032400001F04ABFCC06002010B5054801F0FAFEBDE81040034B02201B6820211B6818477C
:20326000CC06002084010010421C10D010B50446074B00211B684FF4C0421B68984705498F
:2032800001230A68A34022EA03030B6010BD7047B4010010D020024038B504460D4601F042
:2032A000EBFF01230549064AA3400B6042F8245000B138BDBDE8384001F0E2BFE0200240CF
:2032C000D0060020064B002103F1800243F8041F9342FBD1034B10201B681B69184700BF6E
:2032E000CC060020B0010010F8B5094B094F1D6800241D60012606FA04F32B42E0B203D0AC
:2033000057F8243003B198470134202CF3D1F8BDE0200240D006002008B520B9064B01203D
:203320001B685B689847044B40201B685B689847024B00221A6008BDA001001000022243CE
:2033400038B50A4C02F028F8236801209B689847236805461B6801209847236801209B6882
:2033600098471128F9D1284638BD00BFA001001010B582B0FFF7E4FF0446042001F0FAFF70
:20338000032810D00420032101F0CCFF042001F0F1FF0328FAD10090002106484FF0405253
:2033A0001C2301F075FF204602B0BDE81040FFF7B3BF00BF00A00C4010B5FFF7C1FF044684
:2033C000042001F0D7FF022808D00420022101F0A9FF042001F0CEFF0228FAD12046BDE83E
:2033E0001040FFF799BF00BF10B5FFF7A9FF0446012001F0BFFF012803D00320012101F0C1
:2034000091FF2046BDE81040FFF786BF10B5FFF797FF0446012001F0ADFF012802D0044BE3
:203420009B6B98472046BDE81040FFF775BF00BF4800001010B5FFF783FF00210446032040
:2034400001F070FF012001F095FF10B1034B9B6B98472046BDE81040FFF75EBF48000010AC
:2034600008B503F041FE30B1044B5B88022B0CBF0120022008BD022008BD00BF6C07002011
:2034800070B582B003F030FE40B9144801A903F033FE01280AD0002002B070BD0F4C638849
:2034A000022B08BF0120F0D102B070BDFFF7C4F96FF03F05094C2D1A03E0FFF7BDF9C542CF
:2034C00009D56088054E0228F7D1A0F10200B0FA80F04009E8E77088F7E700BF6C070020F4
:2034E00030B589B002A8182140F6020203F0E0FF164B9DF81A201B689DF81B401979144D29
:2035000061F3050211468DF81A205A7902A862F387118DF81A109A7901A9012362F34704A0
:203520008DF81B4007958DF8163003F0E5FD012802D0002009B030BD02A803F02FFEA0F153
:203540000100B0FA80F0400909B030BDAC040020B004002008B5FFF7C3FF012801D000202E
:2035600008BDFFF78DFFC0B208BD00BF38B50A4D00202C6803E024682B68A3420AD02379B9
:20358000032BF8D1054801F077FC24682B680120A342F4D138BD00BF6007002064050020D5
:2035A00008B50346B32994BF0A46B4220248194606F04CFC012008BDEE070020F8B5144EBF
:2035C00035682B79032B01D00020F8BD2B7A032B04D92F7AFFB23C1F8C4205DD2B6800200E
:2035E000336028712872F8BD224605F10901073706F02CFCE95D042049B289B202F0B8FC46
:203600003368002219681A7231601A712046F8BD6807002010B582B003F044FF044603F0B0
:2036200063FD08B902B010BD084801A903F064FD0128F7D1638803F44063002BF2D163884D
:2036400003F44063002BF5D0ECE700BF010001040B2801D001207047082A01D00220704790
:203660000029FBD0054B0139A3F1080013F8012D834201F8012FF9D1002070479C070020A5
:2036800010B584B003F030FD08B904B010BD42F20343002402A801A902940394ADF80830D3
:2036A00003F02AFD0028F0D09DF90A30803302D0204604B010BD9DF80C0000F00C00A0F19E
:2036C0000400B0FA80F04009DFE700BF10B582B003F00AFD00B3124C6388022B1CD1FFF701
:2036E000CFFF0028FBD101A90E4803F005FD02E06388022B03D103F0F7FC0028F8D142F23A
:2037000002426388934207D042F20740181AB0FA80F0400902B010BD012002B010BD00BFE0
:203720006C0700200100010430B585B003F0DCFCB8B10D4B5B88022B13D142F203450024B6
:2037400002A801A902940394ADF8085003F0D4FC38B19DF80A305B06F2D09DF80C0005B0F7
:2037600030BDFF2005B030BD6C07002038B503F0F7FE012814D0FFF783FF04460028FAD171
:20378000FFF7A4FF074D03F07BFDFFF753FE06480649074A074B6C8004710C7114711C715A
:2037A000012038BD6C07002030090020A4080020BC090020480A002008B503F0D1FE01283C
:2037C00009D003F091FC30B10A4B5B88022B02D1FFF756FF08B1002008BDFFF7A5FFFF28CD
:2037E000F9D000F00300A0F10100B0FA80F0400908BD00BF6C070020F8B5FFF7F5FD03F079
:20380000AFFE01280CD003F06FFC28B903F0E0FD012807D00020F8BD194B5B88022BF5D1D8
:203820000120F8BD174A1849184B194C92F805C04F795E7994F805E060F3830C60F3830E03
:20384000842560F3830760F3830682F805C0146084F805E02160D580CD804F710B601A602A
:20386000DD805E71E58003F0CBFDFFF7CFFDFFF737FE0128CED1BDE8F840FFF701BE00BFF6
:203880006C07002030090020BC090020480A0020A408002030B585B007285AD8DFE800F0E7
:2038A0001F26313E41595F044D4C217703F01CFC00282CD06388022B08BF002527D1FFF705
:2038C00005FF012814BF03240024FFF7D9FD012818BF0324002D3ED1204605B030BD01293C
:2038E00073D000296BD0022005B030BDA1F10B030F2BF8D83A4CC9B2A37B8B4269D0A1737A
:20390000D4E7374C618603F0EFFB0028D2D1FFF773FF012851D0032005B030BD304C218640
:20392000C4E731F00302DED12D4CC1F34005237E607E61F30003DBB243F0020365F382031D
:2039400003F0870362F3C71362F3C71023766076ACE70120C1E7FFF709FF2046BDE701F1CA
:2039600015031A2BBFD81F4D0C2455F834301D4899424FEAC4022EDD14F1FF34F5D203F0CA
:20398000B3FB0028A9D04FF0000205EBC40423796079A17903F03F0360F3871361F3470291
:2039A000102403A802A98DF80E308DF80F20ADF80C4003F0A1FB00208FE705467FE70191AD
:2039C000FFF7D4FE0199084687E7FFF715FF0128A1D1002081E7044B02441A60CFE700BF18
:2039E0006C07002070A40000AC04002079B130B50C4683B0102874D8DFE800F0101D22270B
:203A00002C733C6D42737373736064680B000220704705230B60002003B030BD03F064FB9B
:203A200030B13E4B5888A0F10200B0FA80F0400920600020F0E7394B00209B7B0B60EBE7D8
:203A4000364B00205B8E0B60E6E7344B00201B8E0B60E1E7314B002008601A7E02F0010298
:203A60000A60197E01F004010029E2D042F002022260D1E72A4B00201B681B680B60CBE74C
:203A800003F032FB78BBFFF7B7FE01283BD140F20343002201A869460192ADF8043003F0A2
:203AA0002BFB012837D06FF07F05FFF75FFE15F1800F25600CBF03200020ADE70B230B6025
:203AC0000020A9E71A230B600020A5E76FF014030B600020A0E7114B002093F91C300B609B
:203AE0009AE7012098E70D4B5B88022BCBD140F20343002201A869460192ADF8043003F050
:203B0000FBFA012804D06FF07F032360032083E79DF90250CBE79DF90250C6E76C07002000
:203B2000AC04002070B588B0064603F0DDFA70B3294B5B88022B08BF002528D1FEF77CFE47
:203B40006FF01F04241A03E0FEF776FEC44235D5FFF796FD0128F7D080BB182102A842F67A
:203B6000014203F0A5FC1D4B0120F6B28DF81760069303F07BFC02A801A903F0BDFA78B90F
:203B8000012403F087FC15BB204608B070BDFFF733FE012816D0012008B070BDFFF73EFB04
:203BA000BDF80A3003F44063002BF7D0BDF80A40A4B2B4F5105418BF0124E2E725B9022063
:203BC00008B070BD0546B9E7FFF7D0FDF7E7FFF7CDFD2046E0E700BF6C070020EE07002020
:203BE00010B50C46B32C014694BF2246B422044806F02CF92046BDE81040FFF793BF00BF2E
:203C0000EE0700200B2801D001207047082A01D0022070470029FBD008B5124B083103F19C
:203C2000080011F8012D03F8012F8342F9D103F05BFA48B10C4B5B88022B05D1FFF746FDD4
:203C4000FFF71EFC032008BDFFF7D6FD012801D0032008BDFFF73AFDFFF712FCFFF786FD17
:203C6000F6E700BF930700206C07002010B503F077FC012817D003F037FAB0B9FFF7BCFDE4
:203C8000012804460DD1FFF74FFDFF2805D000F0030010F1FF3418BF0124FFF767FD2046B2
:203CA00010BDFFF763FD012010BD094B5B88022BE4D1FFF7E5FC0028FBD1FFF735FDFF28C0
:203CC000F1D000F0030010F1FF3018BF012010BD6C0700202DE9F84342F601092A4F2B4829
:203CE000FFF7A6FA03F040FB384600218C2206F023F900218C22264806F01EF900218C2288
:203D00002448254C06F018F900218C22234806F013F9234E234B00252946204680221F6089
:203D20003760756006F008F9DFF884E001234FF0390CFF207B21A6224FF00B0807272661B3
:203D4000A4F8009084F80E8084F80FC0C4F814E02776A076E17622776373637684F83730FD
:203D6000FFF74AFD0128044603D02C462046BDE8F8830D4803F0ACFB29460C4801F05CF8D1
:203D80002046BDE8F88300BF3009002098040020A4080020BC0900206C070020480A002013
:203DA000600700206807002010A5000064050020500700200AB90020704708B5084611463C
:203DC000FEF770FE002008BD0FB400B583B004AB53F8041B04481A46019300F04BF803B0B1
:203DE0005DF804EB04B07047DC04002038B504461546006806F02AF8236800201D44256071
:203E000038BD00BF0EB430B586B009AB53F8041B084D01901A4601AC04A80393049505948C
:203E200000F028F8019B00221A7006B0BDE8304003B07047ED3D0000102970B50C460546D0
:203E400002D80AE0102C0BD92B686868084910229847103C0028F5D070BD08460029FBD011
:203E600022462B6868680249BDE87040184700BF60A500002DE9F04F82460F468FB007926A
:203E80004FF0000B3B78002B00F0E880252B08BF3E461BD03C4602E0252B04D0144663785F
:203EA000621C002BF8D1974216460CD0D51B39462A46DAF80030DAF804009847002840F091
:203EC00079826378AB44002B00F0C88073780136002B00F0C38019460025A1F12003102BC6
:203EE0001BD8DFE803F0171A1A141A1A1A1A1A1A1A111A0E1A1A090045F0100516F8011F12
:203F0000EBE745F00105F9E745F00605F6E745F00805F3E745F00205F0E7A1F13102082A71
:203F20000B46374600F2DC80A1F13002092A4FF000040AD804EB840403EB440417F8013F4D
:203F4000303CA3F13002092AF4D92E2B00F0D1804FF0FF366C2B00F03D81682B00F0428196
:203F6000782B00F28180DFE813F079007F007F007F007F007F007F007F007F007F007F0072
:203F80007F007F007F007F007F007F007F007F007F007F007F007F007F007F007F007F0031
:203FA0007F007F007F007F007F007F007F007F007F007F00BE027F007F007F007F007F00D0
:203FC0007F007F007F007F007F007F007F007F007F007F007F007F007F007F007F007F00F1
:203FE0007F007F007F007F007F007F00BB027F007F007F00B802B502B2027F007F007F00EB
:204000007F007F007F007F007F007F007F007F007F007F007F007F007F00AF027F007F007E
:204020007F007F007F007F007F007F00AC027F00A902A602A302A0029D027F00A6027F007A
:204040007F007F007F009A0297027D007F007F0091027F008E027F007F00940258460FB0A0
:20406000BDE8F08F45F4407505F4E063B3F5806F07F1010700F0CE804FD9B3F5C06F00F02E
:20408000A581B3F5E06F00F09A81B3F5A06F7FF4F9AE079B012C1A6803F1040307938CBFF6
:2040A00004F1FF340024EB078DF8202000F1D08150462146FFF7C0FE002840F07B81DAF8E4
:2040C0000030DAF8040008A901229847002840F071810BF1010C0CEB040505EB040BD1E61E
:2040E0002A2900F08C800B462E2B4FF000047FF42FAF7B78791CA3F13002092A7AD80F460B
:20410000002606EB860603EB460617F8013F303EA3F13002092AF4D91CE7B3F5807F00F0A5
:20412000B080B3F5407F7FF4ADAE079BC34A1968C34815F4804F03F1040308BF90460793D5
:2041400018BF80460A460023002900F094810DF133094846110941EA03714FEA131E02F044
:204160000F0673460A4618F8061000F8011D52EA0301EFD1B9EB0006034600F07E810336CA
:20418000B4424FF030024FF078014FF0230300F8022C8CBFA41B0024EA0700F8011C00F849
:2041A000033CA0F1030800F1A18150462146FFF743FE002840F0FE804146DAF80030DAF8AC
:2041C000040032469847002840F0F4805E4406EB040B57E67B786C2B00F00481013745F06D
:2041E0006005BDE67B78682B00F09381013745F04005B5E62A2B00F091810F46A8E6079B04
:20420000771C1C680433002C0793B8BF45F0010573789AE6079BD3F8009004330793B9F1F5
:20422000000F00F08F8299F80030002B00F0B2824B4613F8012F002AFBD1C9EB0308002EAF
:2042400002DBB04528BFB04644458CBFC8EB04040024E90700F1E08050462146FFF7ECFDDF
:20426000002840F0A7804946DAF80030DAF8040042469847002840F09D80D84408EB040B5E
:2042800000E6002EABBF25F0100501230196019315F40053049305F0E00300F0A880402BD9
:2042A00000F07F8200F24181002B00F02D82202B40F05A82079B1A1D079293F90020D31730
:2042C000002A73F10001C0F22A82CDE902230023059305F4C053B3F5805F00F09281B3F51D
:2042E000C05F00F0BF81B3F5006F00F067810DF136064FF00008019B41F20802984541F612
:20430000080303EA050380F0338101999342C8EB0101019100F0468141F60802019993425C
:20432000414400F031814FF000094A46049B73B1059B002B40F0838105F00603022B00F0A1
:204340001B824048062B04BF02464FF0010909EB01039C428CBFE41A002415F001030493D0
:2043600006D1E80640F1F681019B2344049C0193B9F1000F07D01146DAF80030DAF80400DA
:204380004A469847B0B9019B08EB0B05102B40F291819B4603E0BBF1100F40F28E81DAF885
:2043A0000030DAF80400284910229847ABF1100B0028F0D04FF0FF300FB0BDE8F08F079BE3
:2043C0001A680433C2F800B007935BE5DAF80030DAF804001D49012298470028EAD10BF1C1
:2043E000010B4FE5BB7845F080050237B8E5402B00F0C68100F2A980002B00F09881202B7E
:2044000040F02181079B049A05921A1D07921A780023CDE902235CE74946DAF80030DAF8ED
:204420000400424698470028C4D150462146D844FFF702FD00283FF421AFBBE72CA50000A8
:2044400018A5000050A5000070A500005CA50000DAF80030DAF8040008A9012298470028E1
:20446000A8D1504621460BF10105FFF7E5FC00283FF433AE9EE70DF13303302203F8012C7E
:20448000581E04267CE645F41065EDE545F48065EAE545F4C855E7E545F48855E4E545F473
:2044A000E065E1E545F48135DEE545F40075DBE545F40245D8E545F42455D5E545F4A065EA
:2044C000D2E545F4C135CFE545F4B245CCE545F4A135C9E545F48445C6E545F44245C3E58F
:2044E00045F4E135C0E545F4C065BDE54146DAF80030DAF804003246984700287FF45AAF6E
:20450000504621465E44FFF797FC00283FF45FAE50E7BB7845F02005023721E5079ABB7834
:20452000111D07911668023714E5602B00F0EC80802B40F01981079B073323F0070303F1BC
:2045400008020792D3E90023BAE6602B00F0EF80802B78D1049B0593079B073323F007032B
:2045600003F108020792D3E90023CDE90223B0E6934200F0EC800022019241F60802019993
:20458000934241447FF4CFAEDDE9022313433FF4CAAE874B15F4804F864A4FF0020908BF5A
:2045A0001A46C3E60B46002908BF01230193019B4FF000094A4603EB0801B7E6DDE90289A0
:2045C00042464B46134300F0E7800DF136031E460693404649460A22002305F027F9303206
:2045E0004046494606F8012D00230A2205F01EF98046894658EA0903EBD1069BC6EB030823
:2046000079E6DDE90223134300F0C6800DF1360306939E46DDE90223D00840EA4370DE088A
:2046200002F007013346024630310EF8011D52EA0301F1D1069B7646CEEB03085BE64FF097
:2046400001095D4A83E605F4C053002200200021B3F5805F0592CDE90201D2D0B3F5C05F91
:2046600040F08580DDE90201544A554B15F4804F14BF9046984602460B46134300F08C80B4
:204680000DF1360306931E4602460B46110941EA03714FEA131E02F00F0073460A4618F810
:2046A000001006F8011D52EA0301EFD1069BC6EB030820E6019B9B464BB15A46DAF8003050
:2046C000DAF804003F49984700287FF473AE31464246DAF80030DAF804004D449847002872
:2046E0007FF468AE019B2B441E46049B002B3FF46EAD50462146FFF79FFB00287FF45AAE7A
:2047000006EB040BFFF7BEBB079B1A6804330793002A4FEAE27373F10001BFF6D6AD52424C
:2047200063EB4303CDE9022301230593D1E5049A079B05921A680021104604330793CDE941
:204740000201C6E5DFF884904FF0060877E5012301932CE7504621460292FFF76DFB029AC1
:2047600000283FF405AE25E600220023ADE5DDF814800DF13606BEE5134A4FF00109E6E592
:20478000079B049A05921A1D07921A880023CDE902239EE5984652E54FF000080DF13606B9
:2047A000A9E5079B1A1D0792B3F90020D31787E544A5000040A5000048A5000018A500005F
:2047C0002CA5000070A500004CA5000054A5000010B50446006830B1002100F02DFB54F82C
:2047E000040F0028F8D110BDF0B5038883B005465BB14A2B04D188291BD0012003B0F0BDC7
:2048000000230380032003B0F0BD194800F01EFC044630B1201DA16800F064F92468002C8E
:20482000F8D1144B01221A704A2301202B8003B0F0BD0F48019200F009FC04460028F3D0F6
:20484000019A031D9A4205D02468231D002CEBD09A42F9D10648214600F03EFC064E626995
:20486000A369376832600BB1E06998473760DBE7D40A0020D6160020E40A002010B5064B90
:20488000002406481C7000F0DDFB2146BDE81040034800F0D1BA00BFD6160020D40A002067
:2048A000E404002070B504460D48049D0078A261E361656130B9A1600A482146BDE870400E
:2048C00000F0C6BB084D094B2E68201D2B6000F009F92E602146BDE87040024800F0B8BB77
:2048E000D6160020D40A0020E40A0020E404002010B5044C82B024680094FFF7D3FF02B0B7
:2049000010BD00BFE40A002070B5094B04461B783BB1084D084B2E6804302B6000F0ECF8EA
:204920002E602146BDE87040044800F091BB00BFD6160020E40A0020E4040020D40A0020C6
:2049400010B50A4B04461B783BB9C36003612146BDE81040064800F0BFBB043000F0E8F8CD
:204960002146BDE81040024800F0B6BBD6160020D40A0020704700BF10B50E4C2368B3B1A2
:20498000FDF71CFF22685168136892681944091A4AB192E8180023441B1A9268994228BFEB
:2049A0001946002AF5D1044B0844186010BD024A136010BDD80A0020DC0A00202DE9F041ED
:2049C000038805467BB1592B08D1872912D0822920D059232B800120BDE8F0810023038047
:2049E0000320BDE8F081254A0120136059232B80BDE8F081214F3B68002BEAD0D9688A4239
:204A000003D024E0D9688A4220D19B68002BF9D13B60DEE7194F4FF000083C68002CD8D042
:204A2000002604E0A3682646002BD2D01C46204600F068FA0028F5D0E0688821224600F0D8
:204A4000C7F978B10E4800F017FAEBE73B6099680029BED0C86882420BBF89680B469960F8
:204A60008968F5E7E060A3682EB1B360C4F80880FFF782FFD1E73B60F8E700BFD80A00207E
:204A8000F404002010B50446104800F0F5F91049E3680A684BB142B194420FD0134601E0C5
:204AA0009C420BD09B68002BFAD10A4BA2601B680C60E360BDE81040FFF75EBF054B1B68E0
:204AC000E360BDE81040FFF757BF00BFF4040020D80A0020E40A0020014800F0CDB900BF2D
:204AE000F404002010B5044600F0FEF92046BDE81040FFF7C7BF00BF10B5044600F0FCF91E
:204B00002046BDE81040FFF7BDBF00BF024B1868003018BF01207047D80A0020024B18688E
:204B200008B1024B18687047D80A0020DC0A002010B5114B04461A68904218D05AB1936883
:204B4000834208BF13460AD02BB19A68A24206D01346002BF9D10023A360E36010BDA26870
:204B60009A60FFF709FF0023A360E36010BD82681A60FFF701FFEEE7D80A00202DE9F84385
:204B8000DFF8A480274DD8F800702E68874247D077B33B4601E0002B3BD01B689842FAD106
:204BA00033B3837B8946044623B3002383736FB1BC424FF0870106D0BB7BDB0703D53846E0
:204BC000224600F033F83F68002FF1D1A3683BB14C4505D02C6004F10C008321002298472B
:204BE000D8F80000844208D12368C8F800302E60BDE8F88338468442F6D00028F7D00368B9
:204C0000A34208D0002BF2D01A68A24204D01346F8E7BDE8F883034622681A602E60E7E7AF
:204C20003B46BDE7E40A0020E80A002070B586687EB104460A4802230460A37304F10C00B1
:204C40000D46B0470238012804D9832D02D00123A37370BD20462146BDE87040FFF78EBF7C
:204C6000E40A002070B50C4A0C4B146800251D7084B1012601E0246864B1E37B002BFAD0F5
:204C8000A673E573204682210022FFF7CFFF2468002CF2D170BD00BFE80A0020DB1600202A
:204CA000024B1878421C1A70704700BFDC16002070B407480749084A0023084D084C8A2616
:204CC00003700B6013602E70237070BC704700BFD9160020E80A0020E40A0020DC1600206F
:204CE000D71600202DE9F8432B4D2B780BB1FFF7B9FF2A4E33781BB3DFF8B4E028499EF86E
:204D00000040013B04EB4402920088180134895CDFF8A0C04268DFF8A0808068214FDBB2D9
:204D200004F01F0433708EF80040CCF80000C8F80020397088B1812906D0847BE40705D42A
:204D400028781844BDE8F88301238373FFF76EFF337828781844BDE8F883134A134C1268BD
:204D60002260002AECD0A1460AE020683978837BD8F80020DB0709D403682360002BE7D044
:204D80002B78002BF1D0FFF76DFFEEE7FFF74EFFD9F80000F0E700BFDB160020D916002083
:204DA000EC0A0020D8160020E80A0020E00A0020D7160020700C00206C0C0020024A034BD8
:204DC00010781B7818447047D9160020DB160020F0B50F4E3478202C17D00E4BDFF838E05C
:204DE0001B78DFF838C0234403F01F0303EB4305AD000EEB05070134B86034707A608CF89E
:204E000000300EF805100020F0BD0120F0BD00BFD9160020D7160020EC0A0020DA160020AB
:204E200038B5837B034CDB07256801D5FFF7FEFE256038BDE40A002070B404460D4D286821
:204E4000A04206D038B1034600E023B11B689C42FBD170BC7047002CFBD0012600232060E3
:204E6000A673A3810A4620462C60812170BCFFF7D7BF00BFE80A002038B1837B013B012B39
:204E800003D8024A01231370C3737047DB160020FDF7CCBC38B5094C049D226822B180E822
:204EA0002A002060002038BD024680E82A0008462260FDF7BDFC002038BD00BF740C002068
:204EC00010B5084C206858B100224368816822609847236823B1BDE810401868FDF7A8BCE5
:204EE00010BD00BF740C002010B541600446FDF765FC206010BD00BF90E80C001344036037
:204F0000704700BF10B50446FDF758FC23686268C3F10103184482422CBF0020012010BD9E
:204F2000F8B504880546672C0CD0792C1BD01CB1002303800320F8BDFFF7B2FE1E4A1F4B2B
:204F400010701C601D4C264604E00A2813D023687E2B2BDD1A4800F00BF9431CF5D1672346
:204F60002B800120F8BD852901D00120F8BD134C00232360E6E7114C124F23680E490026C3
:204F800003F1010E3A4609783046FE54C4F800E0FFF71EFF0C4B324618688521FFF718FF94
:204FA0000028E5D179232B800120F8BD05495A1CC8543260CEE700BF3D170020800D0020EF
:204FC000F80C0020000D0020E40A00200D281FD010B5104C0146237833B10A2810D00E48FF
:204FE000FFF74AFF012010BD0C4800F0A9F80028F5D1012308482370FFF73EFF012010BD89
:20500000064800F09DF80028E9D000232370E6E700207047DD16002004050020F80C002022
:2050200008B505480549802200F082F8BDE8084003480021FFF700BFF80C0020780C002036
:205040000405002000230360704700BF00687047026842B1914203D11BE099420ED01A46F4
:205060001368002BF9D100230B6002680AB90EE01A461368002BFBD1116070470B68136037
:2050800000230B6000230B600268002AF1D1016070470B680360F3E710B404684CB1A142C6
:2050A00017D0224602E0994208D01A461368002BF9D10C6001605DF8044B70470C460B684F
:2050C00013600023236004680C6001605DF8044B70470B680360F4E7026842B18A4203D175
:2050E0000BE0994204D01A461368002BF9D170471968116000221A60704713461268026015
:20510000F8E700BF03682BB100201B680130002BFBD170471846704700B10068704700BF84
:2051200004F058BF08B504F05FFF80B208BD00BF0023013A0160027143718371704700BF4F
:2051400010B44479827903460079A21A024090420AD01A68012011555A79197902440A4069
:205160005A715DF8044B704700205DF8044B70470346807959791A79091A114208D010B4D5
:20518000411C1C680A40205C9A715DF8044B70474FF0FF30704700BFF8B506460B480D467F
:2051A0001746FFF753FF044648B1A3680BB1284698472046FFF7B0FF04460028F5D130463A
:2051C00029463A46BDE8F84002F048BA840D002038B502F053FB05460A48FFF737FF04461E
:2051E00040B1636803B198472046FFF795FF04460028F6D125B12846BDE8384002F028BA02
:2052000038BD00BF840D002010B500F0DBFE00F043FE02F029FA02F02FFBBDE81040022022
:205220004FF400714FF4F0524FF4E12302F0D4BA10B5044602F030FB38B100F061FD034BBD
:20524000034821469B689847012010BD1CA600009951000010B4064A064C1368206811683E
:205260008B42FAD11B0443EA10405DF8044B7047082009400C200940EFF3108072B6704768
:20528000EFF3108062B6704701387FF4FDAF704770B50F2BBDF8105088BF103B00EB41018B
:2052A00088BF120C05FA03F594BF01F5007601F5017645EA0245FFF7DFFF074C23680649EF
:2052C000002BFBD0012335600B6000B170BDBDE87040FFF7D5BF00BF00800C400F2B2DE91C
:2052E000F8439846174600EB010904D9A3F1100809F10209170CFFF7BFFF094E3468084D96
:20530000002CFBD0B9F800400123A4B22B6008B9FFF7B6FF274047FA08F080B2BDE8F88342
:2053200000800C4030B50D46C10783B0044616D4A2070BD4630707D5ADB200950C48002103
:205340000C220223FFF7A4FF03B030BDABB200930748002102220123FFF79AFFEAE7ABB25C
:205360000021009302480B460122FFF791FFDFE700A00C4008B504284FF0340107BF4FF021
:20538000C0421D234FF080521C230248FFF7A6FF08BD00BF00A00C40094B0121094A1960E4
:2053A00013689B06FCD510B5074C402023681B689847236840209B6898471128F9D110BDFE
:2053C0000002224314100940A001001001280AD018B1084B01221A607047074A136823F0F6
:2053E000050313607047044A136843F005031360704700BF8001044300000940F0B506468C
:20540000AD4B0121AD4A83B019601368002BFCD0AB4AC021AB4B11601B6899070AD4AA4B2A
:20542000A2F57F321B68A2F5D572C3F3034343F0F0031370A5490020A54AA64B086015684B
:205440001B686FF00902C3F30463152B88BF203B03EB257301339342B8BF13469E4C9F4F29
:2054600003F01F03C5F3C061DFF8CCE2C5F3806243F4F85382F0010281F0010198483B801A
:20548000CEF8001022600368AA03C3F38364C3F38F230FD445F30722002A80F2E5815B08EE
:2054A00006D164084FF001030CBF1C464FF6FF730132F4D143EA0444FFF7DEFE89490B68FE
:2054C000884A002BFBD0884901230C60136008B9FFF7D6FE824A854813681168C3F38702D9
:2054E00001F0030342EA03232C21009340F2FF320023FFF7CDFE7E4B1C68FFF7BDFE79497C
:20550000C4F30D040B68774A002BFBD0794901230C60136008B9FFF7B3FE774B1C68FFF730
:20552000ABFE704904F0FC340B686E4A002BFBD0724901230C60136008B9FFF7A1FE704BF5
:205540001C68FFF799FE24F07F44664924F440340B68644A002BFBD06A4901230C6013605B
:2055600008B9FFF78DFE574B674A11681C68C1F3034014F00104C1F3035300F015811B05E9
:2055800004048AB21343212E44EA030484BF01F080431C43FFF770FE52490B68514A002B5F
:2055A000FBD05A4901230C60136008B9FFF768FE212E40F2EF805649564A0B68C3F3007392
:2055C0005B0043F02003DBB213700B68C3F3407343F01003DBB213704F4B1B68C3F302649F
:2055E000A200C3F3C16442EA0424C3F381531C43FFF742FE3B490B683A4A002BFBD04749BA
:2056000001230C60136008B9FFF73AFE1F2E40F2B580414B424A1B68212EC3F301534FEAB7
:20562000430343F06003137040F23381384A3D4813683D49C3F3C063DB0063F07F03DBB207
:2056400003701368C3F345539B0043F47C430B80314B1B68C3F30512C3F3892112041B0392
:2056600042EA81529BB242EA0304FFF705FE1D490B681C4A002BFBD02C4901230C60136005
:2056800008B9FFF7FDFD2A482A4A44248821204B047011701B68C5F38150C3F3C14343F009
:2056A00030030128537000F0AF80C0F09780022840F08F8042E000BF101009409402224337
:2056C00000600C40B03F0050AC3F005040100940B43F0050B8120050080020436E6208402B
:2056E0005013005000800C4018A00C4000A00C407C1300501CA00C407413005014A00C407D
:205700007013005010A00C40781300500CA00C408C13005049A10C409813005028A00C40B3
:205720004CA10C4041A10C40DCA10C4008A00C4005A10C4007A10C400000204304200321B4
:20574000FFF7F0FD47F61804564B57491B68574A5748096803F03F0313700480A2F5633230
:20576000CB680220A2F2DF32126898475149524B4020012208601A6003B0F0BD4F4C5049A6
:20578000504B602680204FF47C42267008704E4C1A806AE74D4B222111221F2E19701A7046
:2057A0003FF61AAF002423E7494A126842F30327FB1855D40F2B55DD4FF4700342F3033289
:2057C00012183FF5DEAE0F2AD4BF14044FF47024D7E604200221FFF7A5FDB3E743F2BD7686
:2057E00004200121FFF79EFD3A4D3B483B4B862401213B4A2E60046019601368002BFCD014
:20580000364B00221A609DE7FFF7B4FD044604202146FFF787FD0420FFF7ACFDA042FAD181
:20582000304B2C4E18682C4C2C4B87B2C0F3074501212B4A3760256019601368002BFCD02E
:20584000294B264A1B68002111601B684FF06022000E07219847254B4FF480621A606DE793
:205860002346ABE71B05A9E73FF424AE5B0043F00103B3F5803F4FEA440107D341F00104F1
:205880000F2C86BF4FF6FF730F240123013AEDD110E60B490B4B80204FF47C4208701A802E
:2058A000D6E600BF6C130050A00100100BB00C4070B00C4000600C40940460424CA10C405B
:2058C00041A10C40DCA10C4000803F4049A10C40AC3F00503C600C4040600C4044600C409D
:2058E00084088C43A83F0050B401001040A00C4070B5314B314D1C680026631C08BF0024F2
:2059000002F09AF82E482F4901232F4A2E6003600B601368002BFCD12C492D4A0B681268D0
:2059200023F00053560723F0070334D4294A43F00053156843F00400AD0721D10860264B53
:205940001B6823B1254B20461B68FFF757FD244B0021244A19601368234923F07F6323F4E3
:20596000702343F09C7343F4803313600B68C3F30133012B15D0144A1368002BFCD170BD89
:2059800043F007030B60136803F00303032BFAD10E4B1860D3E743F0005343F005030B603B
:2059A000CDE70B6823F0407323F4403343F400320A600B60DFE700BF1C1300508404604204
:2059C0005C600C40082204430C00684204400340B03F0050004003408001284300012043FF
:2059E0008C21084048200340040009406B4B1B68990706D56A496B4B6B4A082088711A604D
:205A000070472DE9F041044601F08EFF674B1A6812F0030318BF0123520748BF43F00203F1
:205A20000CB143F004035E4D95F90720821A042A14DCAA799A4211D1AA885D4B1E2A1968D1
:205A400057481346296070D81F238380594B5548594A002103601160BDE8F081B0F10F0297
:205A600000F1848002EB02173A12072A53D9534E534C31464FF4E0622468096813F0040C36
:205A8000A1EB0401CCB21CBFC1F3072E744413F0020E1CBFC1F30748444413F0010858D1CD
:205AA000BA1A02FB04F28032082A94BF002201223168CFB2BCF1000F02D0C1F307242744B1
:205AC000BEF1000F02D0C1F307442744B8F1000F01D007EB11673B4C342126682468361796
:205AE000C6F1080601FB06F1E4B204FB01F43A44B4FBF2F14FF6FF728A4228BF0A467F28F4
:205B000092B2AA8023DC10F1800FB8BF802036DAE871AB7191E73AD0561C2B4CB6002B4957
:205B20003444314412022646A6E7B2F5007F28BF002226D35B08B3F5007F02F10102F9D2F8
:205B400023490F3B1B09114341EAC3037FE77F20DEE704EB1161BA1A02FB01F28032082A53
:205B600094BF002201224FF00108A1E703F0040C03F0020E03F001080122144E98E7C0B245
:205B8000C6E70F3A1209124BD20013435FE70B4E0B4C31464FF4E0626EE700BF0000094020
:205BA000880D002030100940FDFDA400242208400820094008E7A48034100940B81300504F
:205BC000B4130050B43F0050981300509C13005000E7A48038B5154B1C68A4B204B938BD8D
:205BE00001F0A2FE124B93F90720904216DB9A880F49944210D34FF6FF700E4B0D681B6809
:205C0000A41A02335B1B1F2B28BF1F235B08DC401444844228BF04468C8038BD6FF07F02F9
:205C20009042B8BF1046D871E1E700BF34100940880D002008200940184B1A6832B3184B15
:205C4000196801F04063B3F1406F1FD0154B1B6898071BD410B4144B144C20681B6810F0EE
:205C6000050FC3F3035303F11C034FEA03130ED19A4209D90A0158BF40F001004B010B4B10
:205C800058BF40F0040018605DF8044B70479A42FAD220F005002060F6E700BF285009404C
:205CA000B43F0050B03F0050AC3F0050000009400B880380704700BF08B5022204F094F8F1
:205CC000B0FA80F0400908BD084B10B51B689847074B5B689847074B5B689847064B5B6826
:205CE0009847BDE81040054B5B681847D8A40000F4A500001CA60000CCA50000B4A50000BD
:205D000010B40A4C208868B1094B198841B1094B3031194430331A5C03F8012B8B42FAD117
:205D2000002323805DF8044B704700BFC8160020C6160020940D0020F8B50E4B0E4A1B78D7
:205D40001688C3F13005AC19802C02DD00242046F8BD074609492A46194404F077F8084A0C
:205D6000084B11681B8878193246194404F06EF82046F8BDDE160020C6160020940D002008
:205D8000900D0020C816002010B40E4C2178814214DBC1F1300313F0FF0308BF0A4B0B4A84
:205DA00008BF1B78128813449BB20344802B05DC091A217001205DF8044B704700205DF8D3
:205DC000044B7047DE160020C8160020C6160020084A138883420BDB10B4074C80B2218825
:205DE0001B1A13800844208001205DF8044B704700207047C6160020C8160020014B1880BE
:205E0000704700BFC6160020024A034B10881844704700BFC8160020C40D0020024B034885
:205E20001B781844704700BFDE160020940D0020014B1888704700BFC6160020064B1878E9
:205E4000C0F1300010F0FF0004BF044B1878044B1B88184480B27047DE160020C816002077
:205E6000C616002038B5094B002103F1340223F8021F9342FBD1064C04F1080520460549B5
:205E80000234FFF715FFAC42F8D138BD0617002000170020C0A5000070B40748074A084928
:205EA000084E094D302400230470116033802B8070BCFFF7D7BF00BFDE160020900D002034
:205EC000C40D0020C8160020C6160020802928BF802138B50C460546FFF7DEFF044B29468B
:205EE0002246186803F0B2FF024B20461C8038BD900D0020C6160020F0B40C4B03F13002F8
:205F00001F685E689D68DC6810339342076046608560C46000F11000F2D1F0BC1A68044B7C
:205F200002601A685B680A604B6070470817002000170020F0B40C4B00F13002076846683D
:205F40008568C468103090421F605E609D60DC6003F11003F2D10068044A186008684B6885
:205F600010605360F0BC70470817002000170020024B23F810100120704700BF08170020C7
:205F8000014B33F8100070470817002008B5044B1A3803EB4000FFF78BFE012008BD00BFD4
:205FA00000170020024B1A3803EB4000704700BF0017002001480249FFF77EBE0217002031
:205FC000C0A5000008B5044801F0D0FABDE80840024801F0CBBA00BF2005002014050020AE
:205FE00038B50F4801F0D4FA044688B10D4801F0CFFA0546206060B1FFF79EFE05F1B601F1
:20600000A5F8800005F18200FFF776FF204638BD38BD2146024801F0D9FA284638BD00BF99
:206020001405002020050020016801F18200B631FFF762BF10B5046804F1820004F1B601B3
:20604000FFF75AFF2046FFF777FEA4F8800010BD10B504460748214601F0DAFA00B910BD27
:206060002168054801F0B2FA2146BDE81040014801F0ACBA140500202005002010B5044624
:206080000948214601F0C4FA00B910BD2468B4F880102046FFF71AFF04F1820004F1B601B3
:2060A000BDE81040FFF746BF14050020036803EB4101B1F882007047014BDB68184700BF8D
:2060C0001CA60000014B5B69184700BFF4A50000014B9B69184700BFF4A50000024BD869A2
:2060E00000B10047704700BFF4A5000080B110B5044682B0006BFEF7A9FF50B1024621466F
:20610000054B0648DB68019302B0BDE810401847704702B010BD00BFF4A50000B96100005C
:2061200071B370B50E460446006B1546FEF7D4FF7068FFF78DFFB168194801F047FA31466D
:20614000184801F043FA206BFEF780FFC8B1002384F8283084F8293084F82A3045B929462A
:2061600004F108002346BDE870400F4AFEF7C0BB0E4BDB699847002814BF01461021EFE7D6
:20618000704704F10800FEF7DBFB21460848FEF7A3FF2146BDE87040064801F017BA00BFA7
:2061A0002C05002044050020ED600000F4A50000D414002038050020002878D02DE9F04F15
:2061C00081B0032908D8DFE801F03F393F0290F82A301A4480F82A200646006B0F46FEF70E
:2061E00035FF044630B95FE02046FEF795FF0446002859D00A216068FFF758FF05460A20BA
:20620000FFF7BEFE8542EFD1A568002D4CD07A1E012AD5F80090D5F8048096F828A019D936
:20622000304621463A46FFF77BFF484641463A46534601B0BDE8F04F00F00AB990F829303A
:206240001A4480F82920C7E790F828301A4480F82820C1E7164BDB699847002814BF834683
:206260004FF0100BFEF75EFF2B7A96F828209A42D6D2BAF1030FA8BF4FF0030A012303FAE2
:206280000AF303FB0BF3B0FBF3F203FB120106F1080059443346074AFEF72AFB606801B06B
:2062A000BDE8F04FFFF7C0BE01B0BDE8F08F7047F4A50000ED6000002DE9F04106461B2046
:2062C0000F46FFF76FFE524B05461A78002A46D0504A118800293FD04B1C9BB20A20138070
:2062E000FFF746FE4C48FEF7B1FE044628B917E02046FEF711FF044690B1201D2946FFF772
:20630000DBFC0028F4D0206BFEF7FCFE07282EDD30463946BDE8F0410422012300F098B8B1
:206320003E4801F035F904460028F1D02946201DFFF7BEFC002304F12C00206384F828308E
:2063400084F8293084F82A30E362FEF77BFE32482146FEF77DFED6E702230121BEE70122C2
:206360001A70FEF7DFFE2B4A01461080B2E72C4801F00EF9054658B32A4801F009F9A860AD
:2063800010B3FFF72DFE6860D0B10920D5F80880FFF7F6FD50BB032388F8083088E8C00050
:2063A0000D20FFF7EDFD01282946206B24D0FEF74FFE206BFEF74AFE854220D0BDE8F081E2
:2063C0001848A96801F002F92946154801F0FEF8206BFEF797FE00289AD121460E48FEF753
:2063E0007BFE21460D4801F0F1F891E70920FFF7C7FD88F80800D1E7FEF74EFED9E704F1FD
:2064000008002346BDE8F0410021074AFEF770BADF160020CA160020D4140020380500202A
:20642000440500202C050020ED60000008B5054801F09CF8044801F099F8BDE808400348C0
:2064400001F094B8440500202C05002038050020844618B1084611461A466047704700BF33
:206460001020704710B50A4A0A4B82B0002414701C80FCF7E1F9009400F500510122064B36
:206480000648FEF707FD064B01221A7002B010BDE2160020D8150020B9690000AC15002010
:2064A000E6160020074B1B7813B1074B1A7802B17047064982B0096A012201911A7002B0E4
:2064C000084700BFE6160020E2160020D8A40000094B1B783BB1094B1A7822B1084A127896
:2064E00002F0FF0102B17047064A1970536A82B0019302B0184700BFE6160020E2160020E0
:20650000E4160020D8A4000008B5FFF7E1FF024B00221A6008BD00BFA8150020024B1B6838
:2065200003B17047FFF7D4BFA815002010B40D4B0D49C2B200240C7083B01A700B4A0C4B9B
:2065400038B9526A18701346019203B05DF8044B1847126A019201221A70019B03B05DF804
:20656000044B1847E4160020E6160020D8A40000E216002030B50B4983B00B7803F0FF04BE
:206580006BB9094B01250D701C70FCF755F92A4600F5005100940548054BFEF77BFC01209F
:2065A00003B030BDE6160020E4160020AC150020B969000030B583B00C460546FCF73CF925
:2065C000231A042B48BF041D00230093284621460122024BFEF75EFC03B030BDB96900001B
:2065E00010B5244C82B02368002B3AD0FFF720FC032802D0FFF722FC08B902B010BD1E4BA8
:206600009B6898470028F8DBFFF712FC0028F4D0FFF714FC0028F0D01B20FFF7C3FC17496F
:20662000FFF74AFB18B9FFF7C5FC0028E5D01320FFF7A6FC2060B8B1FFF734FF1048042160
:20664000104A0023FEF754F901F002FB0028D4D101F01CFB0C4BDB68019302B0BDE81040E3
:206660001847FFF735FFC1E7FFF732FF0448FEF767F9E9E7A815002090A60000FC1600200C
:20668000B815002009650000CCA500002DE9F04F804E89B033783BB97F4B1B7823B90525D0
:2066A000284609B0BDE8F08F0446FFF7C7FB0028F5D07A491A20FFF769FCFFF77BFC804615
:2066C0000C20FFF75DFC40B901210B20FFF750FC734B5B6898470028E1DBFFF7AFFB82460B
:2066E000704F4FF001097D68FFF798FB5146A847BB696D4A019382F80090984720B16A4AC1
:20670000002313700125CBE7FB690393984705460028F4D1FFF7DCFE337886F80090DBB2D4
:2067200002934CBB7B6905941C464FF0060B0495FCF782F80546FFF7B5FE6FF00709C5EB75
:206740000909FCF779F810EB090FFAD4A047002800F09280FFF7BCFEFCF76EF86FF01F0941
:20676000C0EB0909FCF768F810EB090FFAD4BBF1010BDDD1049D059C18F1000818BF4FF059
:206780000108B8F1000F74D00A20FFF7F9FBC3B20593FCF759F9FCF74FF8444BDFF810B12D
:2067A0001B1A0493234644469846C0EB0B0BFCF743F810EB0B0F55D5FCF746F914B9B8F166
:2067C000000F2ED1BB6850469847FCF735F86FF01909C0EB0909FCF72FF810EB090FFAD4BA
:2067E000002CE4D1019B984710B9039B9847A0B3FCF722F86FF02A04241AFCF71DF8E042A2
:20680000FBD43B6907A803219847032817D0FFF75FFE9DF8082000233270234A0125137056
:206820003EE7FCF709F8049BC342CBD4FFF750FE9DF80830022533701B4B1C7030E79DF883
:206840001E30059A9342E2D1FFF742FE9DF8082000233270144A137022E77B699847002836
:20686000C6D0A4E7FFF734FE002C14BF00250225ECE7FFF717FE87E70190FFF729FE0A4B35
:20688000019801251870FFF723FE9DF80830337006E700BFE6160020E4160020FC16002016
:2068A00090A60000D8A40000E3160020BCFBFFFF60DFFFFF2DE9F0471646002A40D0334BBA
:2068C00007461B688846002B54D11546DFF8C0902846FEF721FC04466868FFF7CFFB0C20C2
:2068E000FFF74EFBB0B9012113200CB1FFF740FB01210B20FFF73CFBD9F804309847002827
:206900004FF001014FF00C002CDBFFF731FB6868FFF790FB2546002CDAD13046FEF7FCFBCD
